:020000040800F2
:10000000100B0020C500000801450008293E00082B
:1000100000000000000000000000000000000000E0
:10002000000000000000000000000000B5460008CD
:10003000000000000000000049450008E9460008F3
:10004000D700000800000000D7000008D700000813
:10005000D7000008A1240008D7000008B524000834
:1000600000000000652300087D230008D700000879
:10007000D7000008D7000008D700000800000000E3
:10008000D70000080000000000000000D7000008B2
:1000900000000000D7000008D7000008D7000008C3
:1000A00000000000D700000800000000FD4C000820
:1000B0000348854600F0C8F9004800475D4F000836
:1000C000100B00200448804704480047FEE7FEE785
:1000D000FEE7FEE7FEE7FEE7F1470008B100000893
:1000E00030B50B46014600202022012409E00D46D0
:1000F000D5409D4205D31D469540491B2546954058
:1001000040191546521E002DF1DC30BD10B5202AD5
:1001100004DB0846203AD040002110BD0B46D340F6
:10012000D0402024A21A91400843194610BD03462E
:100130000B439B0703D009E008C9121F08C0042A1B
:10014000FAD203E00B780370401C491C521EF9D20E
:100150007047D2B201E00270401C491EFBD27047CA
:100160000022F6E710B513460A4604461946FFF783
:10017000F0FF204610BD0000F0B50C465C4085B095
:10018000E40FE40703944C000026640859009446E9
:10019000490802460296224321D062460A431ED0F5
:1001A0006200570D4A000E032303550D0124024639
:1001B0002C492405781B1B0B360B40182343264380
:1001C000614600901C46501AB44103D30098401C6D
:1001D000009002E0921800985B41002803DA0020AA
:1001E000014605B0F0BD00200121090507468646FD
:1001F00011E064461D46141BB54106D36546521BEB
:10020000B341744607430C43A646CD07400849084E
:10021000284392185B4105460D43EAD11046184326
:1002200013D06046194650407140084306D06046DE
:10023000101AB34106D20122002306E00022012356
:10024000DB0702E00122D2435310009874460105F7
:10025000381C6141029C039D0019694100F044F87B
:10026000BFE70000FD0300000EB5C217C10F5040EC
:10027000CA0740180021054B0293019200910A46DB
:100280000B4600F03EF803B000BD00003304000050
:100290000EB505490291002100910A460B460191D5
:1002A00000F02FF803B000BD330400004A0009033A
:1002B0000123090B1B051943094B10B5520D9A4236
:1002C00001DA002010BD064B34339A4203DC9A1A3F
:1002D000FFF71CFF10BD03495118884010BD0000F6
:1002E000FF030000CDFBFFFF10B5002B08DA002450
:1002F000401C614192185B411A4301D14008400003
:1003000010BDF0B51FB482B005460C0003D00846FE
:1003100004F09FFD02E004F09CFD203002460090B6
:100320002146284600F0A2F8049B059A04460F4691
:1003300018431143084314D0184610431BD00098AB
:1003400040210A1A18460599FFF7E0FE05460E46B9
:10035000009A0599049800F089F8084305D0012017
:1003600004E02046394607B0F0BD0020C117054320
:100370000E432C43374300990E986305401A7905C4
:10038000E40A00220C43FD0A0A3002D5002001468F
:10039000E9E70105101969410C9C0D9D001969419F
:1003A000FFF7A2FFDFE7FEB500231A461B1A8A41BA
:1003B00003DB0020014603B0F0BD4A000D0301211C
:1003C0002D0B0905520D0D43D10702D100186D41C7
:1003D000521E5110FF31FF310131002704463E46C5
:1003E0003846009701910246012100200905FFF7D8
:1003F0008DFEC3197141F818324684468E464A4133
:1004000061462846611A904104D36046241A9541FA
:1004100076461F46241900986D41401C00903428F0
:10042000E1DDF91930467041091BA84103D20022D1
:10043000D243134601E00022134601980105381CFF
:100440007141FFF751FFB6E7064C0125064E05E066
:10045000E36807CC2B430C3C98471034B442F7D3E5
:10046000FFF72AFE446D0008646D000810B5202ACD
:1004700004DB0146203A9140002010BD914020232A
:100480009C1A0346E3401943904010BD70B51B4CC5
:100490002078002831D01A48007800282DD119483A
:1004A0000078032829D1184802F033FB800524D5B1
:1004B00000202070144802F085FC002803D0B421ED
:1004C00012A004F0C5FC0020144A0123144C9B0226
:1004D0004100555AED1A6552401C80B22028F7D3CE
:1004E00000F01AF920220D49074802F019FC0028F3
:1004F00003D0BB2105A004F0ABFC70BD00000020C0
:10050000B60000200D000020C00000202E2E2F532A
:1005100072632F6164632E6300000000DC0300201F
:100520001C04002070B5044620688168490720D566
:10053000816810254907002905DA8168890702D4F6
:1005400081682943816002F02DFE06460DE002F02D
:1005500029FE801B022808D9606C28436064A06CC7
:1005600001210843A064012070BD20688068400715
:10057000EDD4002070BD10B50146486A426C50238E
:100580001A420AD1416C01225202114341640168AE
:10059000CA681205920F05D020E0C06B026B0846B6
:1005A000904710BD026A002A18D10A68120715D5B3
:1005B0008A6801235207002A09DB4A680C24A243F7
:1005C0004A60416C1A0291431943416406E0416C50
:1005D000202211434164816C1943816402F096FA30
:1005E00010BD10B5406A416C402211434164816CDA
:1005F00004221143816402F08BFA10BD10B5406AE9
:1006000002F085FA10BDF8B50446206881688907B4
:10061000890F012930D10168C90702D1C1680904D5
:100620002AD581680522114010250126012907D00D
:10063000606C28436064A06C3043A0640120F8BD66
:10064000816802221143816021680320086002F062
:10065000A9FD07460CE002F0A5FDC01B022807D942
:10066000606C28436064A06C3043A0640120F8BD36
:1006700020688068C007EED10020F8BDF8B50446B8
:1006800000200090206881688907890F012905D121
:100690000168C90737D1C168090434D481681B4A8D
:1006A000102611400125002907D0606C304360649A
:1006B000A06C2843A0640120F8BD816829438160B3
:1006C000144813490068FFF70BFD009002E0009802
:1006D000401E009000980028F9D102F063FD074603
:1006E0000CE002F05FFDC01B022807D9606C3043AC
:1006F0006064A06C2843A0640120F8BD20680068F5
:10070000C043C007EDD10020F8BD000017000080F5
:1007100040420F000800002010B50020064A074B99
:100720004100545A5C52401CC0B22028F8D30449FE
:100730000120887010BD00001C040020100600205D
:10074000B4000020F0B5FE4B1888401C81B219801F
:10075000FC48007801280CD00720FB4A1070814229
:100760007ED900261E80F94DF9492878002802D04C
:100770000FE00520F1E70022F64CA35C8B54A31890
:1007800020338F181B7920373B71521CD2B2242A98
:10079000F3D301280ED10022EE4C4834A35C8B54D5
:1007A000A31820338F181B7920373B71521CD2B20B
:1007B000242AF3D302280ED10022E64C9034A35C05
:1007C0008B54A31820338F181B7920373B71521C90
:1007D000D2B2242AF3D303280ED10022DD4CD83420
:1007E000A35C8B54A31820338F181B7920373B71DF
:1007F000521CD2B2242AF3D3D74C04280ED10022A3
:100800002746483FBB5C8B54A31820338D181B79B7
:1008100020352B71521CD2B2242AF3D3CB4F05289A
:100820000CD10022A35C8B54A31820338D181B79A4
:1008300020352B71521CD2B2242AF3D306280ED1B4
:100840000022C54C4834A35C8B54A31820338D1868
:100850001B7920352B71521CD2B2242AF3D300E02D
:10086000B7E307280ED10022BB4C9034A35C8B5415
:10087000A31820338D181B7920352B71521CD2B24E
:10088000242AF3D308280ED10022B34CD834A35C19
:100890008B54A31820338D181B7920352B71521CD3
:1008A000D2B2242AF3D309280DD10022AB4CA35C89
:1008B0008B54A31820338D181B7920352B71521CB3
:1008C000D2B2242AF3D30A280ED10022A34C4834F2
:1008D000A35C8B54A31820338D181B7920352B7102
:1008E000521CD2B2242AF3D30B280ED100229B4CE7
:1008F0009034A35C8B54A31820338D181B792035BA
:100900002B71521CD2B2242AF3D30C280ED1002210
:10091000924CD834A35C8B54A31820338D181B79C8
:1009200020352B71521CD2B2242AF3D30D280DD1BD
:1009300000228B4CA35C8B54A31820338D181B7999
:1009400020352B71521CD2B2242AF3D30E280ED19B
:100950000022834C4834A35C8B54A31820338D1899
:100960001B7920352B71521CD2B2242AF3D30F28C5
:100970000ED100227A4C9034A35C8B54A318203300
:100980008D181B7920352B71521CD2B2242AF3D337
:1009900010280ED10022724CD834A35C8B54A318BB
:1009A00020338D181B7920352B71521CD2B2242A8A
:1009B000F3D311280DD100226A4CA35C8B54A318E9
:1009C00020338D181B7920352B71521CD2B2242A6A
:1009D000F3D312280ED10022624C4834A35C8B540E
:1009E000A31820338D181B7920352B71521CD2B2DD
:1009F000242AF3D313280ED100225A4C9034A35C3E
:100A00008B54A31820338D181B7920352B71521C61
:100A1000D2B2242AF3D314280ED10022514CD83458
:100A2000A35C8B54A31820338D181B7920352B71B0
:100A3000521CD2B2242AF3D315280DD100224A4CDD
:100A4000A35C8B54A31820338D181B7920352B7190
:100A5000521CD2B2242AF3D316280ED10022424CC3
:100A60004834A35C8B54A31820338D181B79203590
:100A70002B71521CD2B2242AF3D317280ED1002294
:100A8000394C9034A35C8B54A31820338D181B79F8
:100A900020352B71521CD2B2242AF3D318280ED140
:100AA0000022314CD834A35C8B54A31820338D180A
:100AB0001B7920352B71521CD2B2242AF3D319286A
:100AC0000DD10022294CA35C8B54A31820338D1820
:100AD0001B7920352B71521CD2B2242AF3D31A2849
:100AE0000ED10022214C4834A35C8B54A318203330
:100AF0008D181B7920352B71521CD2B2242AF3D3C6
:100B00001B280ED10022194C9034A35C8B54A318DF
:100B100020338D181B7920352B71521CD2B2242A18
:100B2000F3D31C2827D10022104CD834A35C8B545B
:100B3000A31820338D181B7920352B71521C17E018
:100B4000AC0000201B0000201C000020A50000209D
:100B50005C040020095000087151000891520008FF
:100B6000B1530008D1540008F1550008115700088E
:100B7000D2B2242ADAD31D280DD10022FE4CA35C68
:100B80008B54A31820338D181B7920352B71521CE0
:100B9000D2B2242AF3D31E280ED10022F64C4834B8
:100BA000A35C8B54A31820338D181B7920352B712F
:100BB000521CD2B2242AF3D31F280ED10022EE4CAD
:100BC0009034A35C8B54A31820338D181B792035E7
:100BD0002B71521CD2B2242AF3D320280ED100222A
:100BE000E54CD834A35C8B54A31820338D181B79A3
:100BF00020352B71521CD2B2242AF3D321280DD1D7
:100C00000022DE4CA35C8B54A31820338D181B7973
:100C100020352B71521CD2B2242AF3D322280ED1B4
:100C20000022D64C4834A35C8B54A31820338D1873
:100C30001B7920352B71521CD2B2242AF3D32328DE
:100C40000ED10022CD4C9034A35C8B54A3182033DA
:100C50008D181B7920352B71521CD2B2242AF3D364
:100C600024280ED10022C54CD834A35C8B54A31881
:100C700020338D181B7920352B71521CD2B2242AB7
:100C8000F3D325280DD10022BD4CA35C8B54A318AF
:100C900020338D181B7920352B71521CD2B2242A97
:100CA000F3D326280ED10022B54C4834A35C8B54D4
:100CB000A31820338D181B7920352B71521CD2B20A
:100CC000242AF3D327280ED10022AD4C9034A35C04
:100CD0008B54A31820338D181B7920352B71521C8F
:100CE000D2B2242AF3D328280ED10022A44CD8341F
:100CF000A35C8B54A31820338D181B7920352B71DE
:100D0000521CD2B2242AF3D329280DD100229D4CA3
:100D1000A35C8B54A31820338D181B7920352B71BD
:100D2000521CD2B2242AF3D32A280ED10022954C89
:100D30004834A35C8B54A31820338D181B792035BD
:100D40002B71521CD2B2242AF3D32B280ED10022AD
:100D50008C4C9034A35C8B54A31820338D181B79D2
:100D600020352B71521CD2B2242AF3D32C280ED159
:100D70000022844CD834A35C8B54A31820338D18E4
:100D80001B7920352B71521CD2B2242AF3D32D2883
:100D90000DD100227C4CA35C8B54A31820338D18FA
:100DA0001B7920352B71521CD2B2242AF3D32E2862
:100DB0000ED10022744C4834A35C8B54A31820330A
:100DC0008D181B7920352B71521CD2B2242AF3D3F3
:100DD0002F280ED100226C4C9034A35C8B54A318A6
:100DE00020338D181B7920352B71521CD2B2242A46
:100DF000F3D330280ED10022634CD834A35C8B543B
:100E0000A31820338D181B7920352B71521CD2B2B8
:100E1000242AF3D331280DD100225C4CA35C8B54DF
:100E2000A31820338D181B7920352B71521CD2B298
:100E3000242AF3D332280ED10022544C4834A35C28
:100E40008B54A31820338D181B7920352B71521C1D
:100E5000D2B2242AF3D333280ED100224B4C903443
:100E6000A35C8B54A31820338D181B7920352B716C
:100E7000521CD2B2242AF3D334280ED10022434C80
:100E8000D834A35C8B54A31820338D181B792035DC
:100E90002B71521CD2B2242AF3D335280DD1002253
:100EA0003B4CA35C8B54A31820338D181B79203541
:100EB0002B71521CD2B2242AF3D336280ED1002231
:100EC000334C4834A35C8B54A31820338D181B7902
:100ED00020352B71521CD2B2242AF3D337280ED1DD
:100EE00000222B4C9034A35C8B54A31820338D1814
:100EF0001B7920352B71521CD2B2242AF3D3382807
:100F00000ED10022224CD834A35C8B54A31820337A
:100F10008D181B7920352B71521CD2B2242AF3D3A1
:100F200039280DD100221B4CA35C8B54A31820330D
:100F30008D181B7920352B71521CD2B2242AF3D381
:100F40003A280ED10022134C4834A35C8B54A318CA
:100F500020338D181B7920352B71521CD2B2242AD4
:100F6000F3D33B281FD100220A4C9034A35C8B544E
:100F7000A31820331B790FE031580008515900089D
:100F8000715A0008915B0008B15C0008D15D00084F
:100F9000F15E0008116000088D1820352B71521C7D
:100FA000D2B2242AE2D33C280DD10022094CA35C02
:100FB0008B54A31820338D181B7920352B71521CAC
:100FC000D2B2242AF3D3401CC0B238703D2800D3DB
:100FD0003E70F0BDE9600008F0B5FE4A1088401C84
:100FE00081B21180FC48007801280CD01620FB4B00
:100FF000187081427ED900271780F94BF94918787B
:10100000002802D00FE00F20F1E70022F64DAC5C83
:101010008C54AC1820348E18247920363471521C2C
:10102000D2B2242AF3D301280ED10022EE4D483546
:10103000AC5C8C54AC1820348E1824792036347172
:10104000521CD2B2242AF3D302280ED10022E64C3D
:101050009034A55C8D54A51820358E182D79203636
:101060003571521CD2B2242AF3D303280ED10022A8
:10107000DD4DD835AC5C8C54AC1820348E182479F6
:1010800020363471521CD2B2242AF3D304280DD155
:101090000022D64CA55C8D54A51820358E182D79CC
:1010A00020363571521CD2B2242AF3D305280ED132
:1010B0000022CE4D4835AC5C8C54AC1820348E18D0
:1010C000247920363471521CD2B2242AF3D3062854
:1010D0000ED10022C54C9034A55C8D54A518203546
:1010E0008E182D7920363571521CD2B2242AF3D3B2
:1010F000072800E03FE20ED10022BC4DD835AC5CA1
:101100008C54AC1820348E18247920363471521C3B
:10111000D2B2242AF3D308280DD10022B44DAC5CFE
:101120008C54AC1820348E18247920363471521C1B
:10113000D2B2242AF3D309280ED10022AC4C483471
:10114000A55C8D54A51820358E182D792036357163
:10115000521CD2B2242AF3D30A280ED10022A44D65
:101160009035AC5C8C54AC1820348E182479203621
:101170003471521CD2B2242AF3D30B280ED1002290
:101180009B4DD835AC5C8C54AC1820348E18247927
:1011900020363471521CD2B2242AF3D30C280DD13C
:1011A0000022944DAC5C8C54AC1820348E182479F9
:1011B00020363471521CD2B2242AF3D30D280ED11A
:1011C00000228C4C4834A55C8D54A51820358E180F
:1011D0002D7920363571521CD2B2242AF3D30E2831
:1011E0000ED10022834D9035AC5C8C54AC18203469
:1011F0008E18247920363471521CD2B2242AF3D3AB
:101200000F280ED100227B4DD835AC5C8C54AC1825
:1012100020348E18247920363471521CD2B2242AFC
:10122000F3D3102811D10022734D0E462436734B90
:10123000AC5C9B5CCC54AB1820331C79704B9B5C32
:101240009C55521CD2B2242AF1D3654B11280ED1E1
:101250000022694D4835AC5C8C54AC1820348E1893
:10126000247920363471521CD2B2242AF3D31228A6
:101270000ED10022604D9035AC5C8C54AC182034FB
:101280008E18247920363471521CD2B2242AF3D31A
:1012900013280ED10022584CD834A55C8D54A518C3
:1012A00020358E182D7920363571521CD2B2242A61
:1012B000F3D314280DD10022524DAC5C8C54AC18E1
:1012C00020348E18247920363471521CD2B2242A4C
:1012D000F3D315280ED100224A4D4835AC5C8C540E
:1012E000AC1820348E18247920363471521CD2B2B6
:1012F000242AF3D316280ED10022424D9035AC5C3F
:101300008C54AC1820348E18247920363471521C39
:10131000D2B2242AF3D317280ED10022394CD83464
:10132000A55C8D54A51820358E182D792036357181
:10133000521CD2B2242AF3D318280DD10022324DE8
:10134000AC5C8C54AC1820348E182479203634715F
:10135000521CD2B2242AF3D319280ED100222A4DCE
:101360004835AC5C8C54AC1820348E182479203667
:101370003471521CD2B2242AF3D31A280ED100227F
:10138000214D9035AC5C8C54AC1820348E182479E7
:1013900020363471521CD2B2242AF3D31B280ED12A
:1013A0000022194DD835AC5C8C54AC1820348E1802
:1013B000247920363471521CD2B2242AF3D31C284B
:1013C0002CD10022114DAC5C8C54AC182034247903
:1013D0008E181DE0AC0000201B0000201D00002026
:1013E000A50000205C040020316100085162000863
:1013F0007163000891640008B16500085C0000207A
:1014000080000020D1660008F1670008116900081B
:1014100020363471521CD2B2242AD4D31D280DD1C7
:101420000022554CA55C8D54A51820358E182D79B9
:1014300020363571521CD2B2242AF3D31E280ED185
:1014400000224D4D4835AC5C8C54AC1820348E18BD
:10145000247920363471521CD2B2242AF3D31F28A7
:101460000ED10022444D9035AC5C8C54AC18203425
:101470008E18247920363471521CD2B2242AF3D328
:1014800020280ED100223C4CD834A55C8D54A518E0
:1014900020358E182D7920363571521CD2B2242A6F
:1014A000F3D321280DD10022344DAC5C8C54AC1800
:1014B00020348E18247920363471521CD2B2242A5A
:1014C000F3D322280ED100222C4C4834A55C8D5435
:1014D000A51820358E182D7920363571521CD2B2C0
:1014E000242AF3D323280ED10022244D9035AC5C5E
:1014F0008C54AC1820348E18247920363471521C48
:10150000D2B2242AF3D324280ED100221B4CD83483
:10151000A55C8D54A51820358E182D79203635718F
:10152000521CD2B2242AF3D325280DD10022144D07
:10153000AC5C8C54AC1820348E182479203634716D
:10154000521CD2B2242AF3D326280ED100220C4CEE
:101550004834A55C8D54A51820358E182D79203679
:101560003571521CD2B2242AF3D3401CC0B2187079
:10157000272800D31F70F0BD59690008796A000858
:10158000996B0008F0B500F033FFC0B2FE4E307129
:10159000FE4B0024002814D0012812D0022810D0BD
:1015A000032811D004280FD0052810D006280ED00B
:1015B00007280FD008280DD009280ED00A280CD0F3
:1015C0000CE01420187009E00F20187006E00A20C3
:1015D000187003E00520187000E01C70B08901222B
:1015E000002813D0748172717079E949002819D0EC
:1015F0003481B078401CC0B2B0701B7898422CD9AE
:10160000B470B2717078002846D053E07089401CE5
:1016100080B27081642803D3642070817471E3E721
:101620007271E1E7B4703089401C80B230812728A4
:1016300014D04E2821D075280ED334810020D54BEC
:101640001C5C0C541C1820340D18247920352C7186
:10165000401CC0B22428F3D3B271F0BD0020CE4BA1
:101660001C5C0C541C1820340D18247920352C7166
:10167000401CC0B22428F3D3EEE70020C74B1C5C0B
:101680000C541C1820340D18247920352C71401C62
:10169000C0B22428F3D3DFE70022C14DAB5C8B54EA
:1016A000AB1820338F181B7920373B71521CD2B2F4
:1016B000242AF3D301280DD10022BA4DAB5C8B5400
:1016C000AB1820338F181B7920373B71521CD2B2D4
:1016D000242AF3D302280DD10022B34DAB5C8B54E6
:1016E000AB1820338F181B7920373B71521CD2B2B4
:1016F000242AF3D303280DD10022AC4DAB5C8B54CC
:10170000AB1820338F181B7920373B71521CD2B293
:10171000242AF3D3A64D04280DD10022A54FBB5C8B
:101720008B54AB1820338E181B7920363371521C22
:10173000D2B2242AF3D3944F05280CD10022AB5CFB
:101740008B54AB1820338E181B7920363371521C02
:10175000D2B2242AF3D306280DD10022964DAB5CD9
:101760008B54AB1820338E181B7920363371521CE2
:10177000D2B2242AF3D307280DD100228F4DAB5CBF
:101780008B54AB1820338E181B7920363371521CC2
:10179000D2B2242AF3D308280DD10022884DAB5CA5
:1017A0008B54AB1820338E181B7920363371521CA2
:1017B000D2B2242AF3D309280DD10022814DAB5C8B
:1017C0008B54AB1820338E181B7920363371521C82
:1017D000D2B2242AF3D30A280DD100227A4DAB5C71
:1017E0008B54AB1820338E181B7920363371521C62
:1017F000D2B2242AF3D30B280DD10022734DAB5C57
:101800008B54AB1820338E181B7920363371521C41
:10181000D2B2242AF3D30C280DD100226C4DAB5C3C
:101820008B54AB1820338E181B7920363371521C21
:10183000D2B2242AF3D30D280DD10022654DAB5C22
:101840008B54AB1820338E181B7920363371521C01
:10185000D2B2242AF3D30E280DD100225E4DAB5C08
:101860008B54AB1820338E181B7920363371521CE1
:10187000D2B2242AF3D30F280DD10022574DAB5CEE
:101880008B54AB1820338E181B7920363371521CC1
:10189000D2B2242AF3D310280DD10022504DAB5CD4
:1018A0008B54AB1820338E181B7920363371521CA1
:1018B000D2B2242AF3D311280DD10022494DAB5CBA
:1018C0008B54AB1820338E181B7920363371521C81
:1018D000D2B2242AF3D312280DD10022424DAB5CA0
:1018E0008B54AB1820338E181B7920363371521C61
:1018F000D2B2242AF3D313280DD100223B4DAB5C86
:101900008B54AB1820338E181B7920363371521C40
:10191000D2B2242AF3D314280DD10022344DAB5C6B
:101920008B54AB1820338E181B7920363371521C20
:10193000D2B2242AF3D315280DD100222D4DAB5C51
:101940008B54AB1820338E181B7920363371521C00
:10195000D2B2242AF3D316280DD10022264DAB5C37
:101960008B54AB1820338E181B7920363371521CE0
:10197000D2B2242AF3D317284AD100221F4DAB5CE0
:101980008B54AB1820333BE0A40000201E00002045
:101990005C040020B96C0008296C0008716C000818
:1019A000095000085150000899500008E150000803
:1019B0007151000829510008B9510008015200086E
:1019C0004952000891520008D952000821530008DA
:1019D00069530008B1530008F95300084154000846
:1019E00089540008D15400081955000861550008B1
:1019F000A9550008F155000839560008815600081D
:101A00008E181B7920363371521CD2B2242AB6D3D9
:101A100018280DD10022FE4DAB5C8B54AB1820333F
:101A20008E181B7920363371521CD2B2242AF3D37C
:101A300019280DD10022F74DAB5C8B54AB18203325
:101A40008E181B7920363371521CD2B2242AF3D35C
:101A50001A280DD10022F04DAB5C8B54AB1820330B
:101A60008E181B7920363371521CD2B2242AF3D33C
:101A70001B280DD10022E94DAB5C8B54AB182033F1
:101A80008E181B7920363371521CD2B2242AF3D31C
:101A90001C280DD10022E24DAB5C8B54AB182033D7
:101AA0008E181B7920363371521CD2B2242AF3D3FC
:101AB0001D280DD10022DB4DAB5C8B54AB182033BD
:101AC0008E181B7920363371521CD2B2242AF3D3DC
:101AD0001E280DD10022D44DAB5C8B54AB182033A3
:101AE0008E181B7920363371521CD2B2242AF3D3BC
:101AF0001F280DD10022CD4DAB5C8B54AB18203389
:101B00008E181B7920363371521CD2B2242AF3D39B
:101B100020280DD10022C64DAB5C8B54AB1820336E
:101B20008E181B7920363371521CD2B2242AF3D37B
:101B300021280DD10022BF4DAB5C8B54AB18203354
:101B40008E181B7920363371521CD2B2242AF3D35B
:101B500022280DD10022B84DAB5C8B54AB1820333A
:101B60008E181B7920363371521CD2B2242AF3D33B
:101B700023280DD10022B14DAB5C8B54AB18203320
:101B80008E181B7920363371521CD2B2242AF3D31B
:101B900024280DD10022AA4DAB5C8B54AB18203306
:101BA0008E181B7920363371521CD2B2242AF3D3FB
:101BB00025280DD10022A34DAB5C8B54AB182033EC
:101BC0008E181B7920363371521CD2B2242AF3D3DB
:101BD00026280DD100229C4DAB5C8B54AB182033D2
:101BE0008E181B7920363371521CD2B2242AF3D3BB
:101BF00027280DD10022954DAB5C8B54AB182033B8
:101C00008E181B7920363371521CD2B2242AF3D39A
:101C100028280DD100228E4DAB5C8B54AB1820339D
:101C20008E181B7920363371521CD2B2242AF3D37A
:101C300029280DD10022874DAB5C8B54AB18203383
:101C40008E181B7920363371521CD2B2242AF3D35A
:101C50002A280DD10022804DAB5C8B54AB18203369
:101C60008E181B7920363371521CD2B2242AF3D33A
:101C70002B280DD10022794DAB5C8B54AB1820334F
:101C80008E181B7920363371521CD2B2242AF3D31A
:101C90002C280DD10022724DAB5C8B54AB18203335
:101CA0008E181B7920363371521CD2B2242AF3D3FA
:101CB0002D280DD100226B4DAB5C8B54AB1820331B
:101CC0008E181B7920363371521CD2B2242AF3D3DA
:101CD0002E280DD10022644DAB5C8B54AB18203301
:101CE0008E181B7920363371521CD2B2242AF3D3BA
:101CF0002F280DD100225D4DAB5C8B54AB182033E7
:101D00008E181B7920363371521CD2B2242AF3D399
:101D100030280DD10022564DAB5C8B54AB182033CC
:101D20008E181B7920363371521CD2B2242AF3D379
:101D300031280DD100224F4DAB5C8B54AB182033B2
:101D40008E181B7920363371521CD2B2242AF3D359
:101D500032280DD10022484DAB5C8B54AB18203398
:101D60008E181B7920363371521CD2B2242AF3D339
:101D700033280DD10022414DAB5C8B54AB1820337E
:101D80008E181B7920363371521CD2B2242AF3D319
:101D900034280DD100223A4DAB5C8B54AB18203364
:101DA0008E181B7920363371521CD2B2242AF3D3F9
:101DB00035280DD10022334DAB5C8B54AB1820334A
:101DC0008E181B7920363371521CD2B2242AF3D3D9
:101DD00036280DD100222C4DAB5C8B54AB18203330
:101DE0008E181B7920363371521CD2B2242AF3D3B9
:101DF00037284ED10022254DAB5C8B54AB182033D5
:101E00008E181B7920363371521CD2B2242A3FE03F
:101E1000C95600081157000859570008A157000873
:101E2000E95700083158000879580008C1580008DF
:101E3000095900085159000899590008E15900084A
:101E4000295A0008715A0008B95A0008015B0008B5
:101E5000495B0008915B0008D95B0008215C000821
:101E6000695C0008B15C0008F95C0008415D00088D
:101E7000895D0008D15D0008195E0008615E0008F8
:101E8000A95E0008F15E0008395F0008815F000864
:101E9000B2D338280DD100222A4DAB5C8B54AB183D
:101EA00020338E181B7920363371521CD2B2242A6B
:101EB000F3D339280DD10022234DAB5C8B54AB18E2
:101EC00020338E181B7920363371521CD2B2242A4B
:101ED000F3D33A280DD100221C4DAB5C8B54AB18C8
:101EE00020338E181B7920363371521CD2B2242A2B
:101EF000F3D33B280DD10022154DAB5C8B54AB18AE
:101F000020338E181B7920363371521CD2B2242A0A
:101F1000F3D33C280DD100220E4DAB5C8B54AB1893
:101F200020338E181B7920363371521CD2B2242AEA
:101F3000F3D3401CC0B278703D2801D2FFF78DFB6F
:101F40007C70F0BDC95F000811600008596000088E
:101F5000A1600008E960000810B5044C2078002852
:101F600001D102F079FA0120207010BD1F0000207D
:101F7000F0B5A1B0F04C6578A078284344D0642136
:101F800007A8FEF7EDF8ED4807AB4188002D0BD010
:101F90000020EB4A03E0155C1D54401CC0B2814296
:101FA000F9D8002060700BE00020E54A643203E0BD
:101FB000155C1D54401CC0B28142F9D80020A070AD
:101FC0006846E04C007F2778412813D16946497F55
:101FD00030290FD16946897F30290BD16946C97FE5
:101FE000352907D108A94978412903D108A9C97819
:101FF000312903D00226412808D01BE0002F00D150
:1020000001272770D048077021B0F0BD6946497F8D
:1020100030290FD16946897F30290BD16946C97FA4
:10202000352907D108A94978412903D108A9C978D8
:10203000302904D0C54DC64B412812D021E00025DF
:10204000257009200121C00601F09EF8012805D065
:10205000C0480570BC4821780170D5E7BD480670BE
:10206000F8E76946497F30290BD16946897F3029D5
:1020700007D16946C97F352903D108A94978422982
:1020800002D041281FD02EE008A8C178807802F045
:102090003FFF012809D002280CD003280FD00428C4
:1020A000B2D1012028701870AEE7052028700720F3
:1020B0001870A9E70320287005201870A4E72E7077
:1020C00003201870A0E76946497F30290BD1694683
:1020D000897F302907D16946C97F352903D108A9ED
:1020E0004978502902D0412812D021E008A8C178AF
:1020F000807802F00DFF012802D0022803D003E00F
:102100000120207000E026708F48217801707BE765
:102110006946497F30290BD16946897F302907D12B
:102120006946C97F352903D108A94978532902D0C6
:10213000412808D01BE008A8C178807802F0E8FEAA
:102140008549087060E76946497F30290FD16946A3
:10215000897F30290BD16946C97F352907D108A964
:102160004978442903D108A98978542902D0412803
:1021700022D031E01C2279496846FDF7D8FF01A83A
:102180003946013002F0D7FE02A8209902F0D3FEB2
:1021900002A82978033002F0CEFE03A8217802308D
:1021A00002F0C9FE6C48017804A8013002F0C3FEB9
:1021B000684602F0ADFD27E76946497F30290BD11B
:1021C0006946897F302907D16946C97F352903D1FE
:1021D00008A94978542902D0422806D017E008A857
:1021E000C178807802F094FE0EE76946497F302975
:1021F0000DD16946897F302909D16946C97F3529C2
:1022000005D108A949784B292BD0412929D041284B
:1022100098D16846407F302894D16846807F302826
:1022200090D16846C07F35288CD108A840784328D3
:1022300088D108A880784F2884D108A841790079EE
:1022400002F066FE207008A8C179807902F060FE75
:10225000012833D0022836D0032839D004283BD0B7
:102260003DE008A8C178807802F052FE3C49002881
:1022700006D0012814D0022816D0032817D019E060
:10228000002525700D7009200121C00600F07CFF9B
:10229000012802D02F4805700CE02E48067009E096
:1022A00001202070087005E026700E7002E0032007
:1022B00020700870244821780170A5E60520287058
:1022C000072018700BE0032028700520187006E026
:1022D0002E700320187002E001202870187008A8E2
:1022E000417A007A02F014FE012802D0022803D0BD
:1022F00003E00120207000E02670134B2078187056
:1023000008A8C17A807A02F003FE012802D00028D2
:1023100005D009E0207818700320207004E01878B8
:10232000002800D10120207008A8417B007B02F02A
:10233000EFFD0949087067E61F00002050010020EA
:10234000140300200D0000201800002015000020BC
:102350000E0000200C0000201B000020F04F0008A1
:102360002B00002010B5034800F0A3FD0249012016
:10237000087010BD0C0100200000002010B50348BB
:1023800000F097FD024800F094FD10BD6C020020A3
:102390002802002010B50446054920684018142181
:1023A000FDF79EFE800020640248E06310BD00003F
:1023B000F8FFFDBF0000024030B5056C0124AC40C1
:1023C000C56B6C60046863604368102B04D00368BD
:1023D00099600068C26030BD03689A600068C1609F
:1023E00030BD01E0401EC0B20028FBD170470000A4
:1023F00025490879C989302901D2002070470B4648
:102400005D22303BD200934201D20120704763230A
:10241000DB00CB1A934201D20220704703235B02F8
:10242000CB1A934201D803207047184BCB18934224
:1024300001D204207047BD2212018A1AB22A01D2A9
:1024400005207047124A8A18B22A01D20620704726
:102450000F4AB23A8A18B22A01D2072070470D4AB1
:102460008A18B22A01D2082070470A4AB23A8A185A
:10247000B22A01D209207047074A8918074A9142B7
:10248000F9D80A2070470000A400002018F7FFFFC9
:102490007EF3FFFF1AF2FFFFB6F0FFFFB5F000007A
:1024A00010B5012000F0C0FD01490020087010BDEA
:1024B0001900002010B5102000F0B6FD01490020E1
:1024C000087010BD19000020F0B588B0524880781F
:1024D00001287DD100F0DEF8012086464F4B012017
:1024E0007146491E8840C0B203900020844603987C
:1024F000401E049079E0012071460522511A88405F
:1025000061464843C0B20290624668E050001C5ADF
:102510000194424940310D5A00950399404D029E65
:1025200051184900AE575C5A07967443A7113B4CAB
:10253000029E4034645A203D0694AD571E5A6C43A7
:10254000A4113C19A4191C525C5A05946C43A611A1
:10255000324C4034245AA71B079E069C7443A41196
:102560002E4E3C1940363452079E059C7443A611EA
:10257000019CA61B294C4034645A27466F43BF1167
:10258000F61BB6B25E526E43009DB6117519079EDA
:102590007443A4112C1B214D40356C521C5A640805
:1025A0001C522C46245A64082C52585A400858523F
:1025B0002846405A44082846445217487146C1707C
:1025C000039901716146417102998171C27100E004
:1025D0001FE000210170039840008018C2B2202A39
:1025E00094D36046401CC0B284460498844582DD82
:1025F0007046401CC0B286467046052800D86EE77B
:1026000006490020403108801880034901224A70A1
:10261000887008B0F0BD0000B40000201006002053
:10262000216D0008F8B51749002048700024164FA6
:102630003E468036144965004031785B495B404333
:1026400049434018FDF710FE02F0A2FCFDF72EFEF4
:102650007053641CE4B2202CECD300240A4FC03722
:102660006500705B0009FDF713FE084A084BFDF793
:1026700083FDFDF71BFE7853641CE4B2202CEFD3DE
:10268000F8BD0000B40000201006002039B4C87660
:10269000BE9FF63F08B500200090074A06E06B4653
:1026A0001978490050521978491C009169460978F7
:1026B0002029F4D308BD000050060020FEB57B4D54
:1026C0002878002801D101F0A9FF7948002100787D
:1026D000002833D0774C784F784E012837D0022825
:1026E0005CD0032829D1A88900287DD0E970FEF7A5
:1026F00049FF00257248007800906E4F0099785D80
:10270000FDF7EEFC6C4904464855781920300079F5
:102710000099FDF7E5FC6B4A014650556A4A54554D
:102720006A4A51556A4A54556A4A51556A4A54553B
:1027300071556D1CEDB2242DDFD3FEBD0020674A1C
:102740001154401CC0B24B28FAD31170FEBDFDF7E6
:10275000F9FF00255A4800780290564F0299785D9B
:10276000FDF7BEFC544904464855781920300079DD
:102770000299FDF7B5FC534A01465055524A54554B
:10278000524A5155524A5455524A5155524844554D
:1027900071556D1CEDB2242DDFD3FEBDFEF71CFC80
:1027A0000025474800780190424F0199785DFDF778
:1027B00097FC414904464855781920300079019921
:1027C000FDF78EFC3F4A014650553F4A54553F4A5B
:1027D00051553F4A54553F4A51553F4A54557155FA
:1027E0006D1CEDB2242D00E001E0DDD3FEBDE878E4
:1027F000002827D0FEF7C6FE0025364C364F2D495F
:102800002D4A485D5055491920310E792D494E55B4
:102810002D4982084A552D49B2084A552C4942088B
:102820004A55710861550321FDF75AFC785503217B
:102830003046FDF755FC214948556D1CEDB2242D5D
:10284000DDD3FEBD0120E8700020225C022A08D3FF
:10285000921E22542218203213799B1E1371E970A4
:1028600006E0012A04D12154221820321171E970A6
:10287000401CC0B22428E8D30020154B154C0D4A4B
:10288000115C3954121820320E4D12792A540E4D13
:1028900029540E4D2A54195422540F4D29543254A0
:1028A000401CC0B22428EAD3FEBD0000A4000020D2
:1028B0000D0000205C040020A4040020EB05002093
:1028C00015000020C8040020370500205B0500200B
:1028D0007F050020A3050020C7050020EC04002090
:1028E00070B5002409200121C00600F04DFC124DF6
:1028F0002872124E1021304600F046FC002800D10C
:102900000224697A287A814214D0687210213046F4
:1029100000F03AFC002804D1287A002801D00224D3
:1029200008E0297A0648002902D00221017001E05E
:1029300000210170204670BD2400002000040048E2
:102940000C000020F8B504460026254640352878BE
:10295000012808D001202870206881688907890F24
:10296000012908D101E00220F8BD0168C90738D16A
:10297000C168090435D4616CFF22013291430222FF
:1029800011436164C1688907890F0091C168890892
:102990008900C1602068816892071143816000F05E
:1029A00001FC07460EE000F0FDFBC01B022809D920
:1029B000606C022188431021084360640020287065
:1029C0000120F8BD206880680028ECDB2068C16821
:1029D000009A1143C160606C80088000401C6064F4
:1029E00004E0606C20210843606401260020287008
:1029F0003046F8BDF8B50025002200920446403468
:102A00002278012A39D0012323700268966876075C
:102A10006AD43A4F4E68BE4250D0966A0F78BB4097
:102A20001E4396620123826B1B079A421FD0012A24
:102A30001DD0022A1BD0032A19D0042A17D0052A38
:102A400015D0062A13D0072A11D002688B68566960
:102A50007607760FB3420AD05369DB08DB00536177
:102A6000006842690B7A5B075B0F1A434261086892
:102A7000102804D0112802D03BE00220F8BD204BE2
:102A80009A68102807D00120800502439A600868E0
:102A9000102803D02DE00120C005F6E71A48194997
:102AA0000068FDF71DFB0A214843009002E00098F2
:102AB000401E009000980028F9D11AE0906A0E7824
:102AC000B340984390620868102801D0112810D1B3
:102AD0000B498A68102804D00120800582438A604F
:102AE00007E00120C005F9E7416C20221143416451
:102AF0000125002020702846F8BD000001100000CC
:102B00000027014040420F00080000207047704736
:102B10007047406C70470000F8B504460025002C53
:102B200003D0606C002802D008E00120F8BD00202E
:102B3000A06440210855204600F0AAF8606C1022DD
:102B4000C006002870DB2068816849076CD4616C7E
:102B50001301994302231943616481688907890F2E
:102B6000012905D10168C9070FD1C16809040CD436
:102B7000C16818239943A3681943C160206801699B
:102B8000636889008908194301612068C1683E4B68
:102B90001940C160A0698103E069C0030143206A54
:102BA00043031943636B012B02D001231B0300E095
:102BB00000231943E36819432369022B09D000233A
:102BC0001943236B5B001943666A0123012E02D06F
:102BD0000AE00423F4E7002827D0606C2026304365
:102BE0006064A06C1843A064A06A0646FF3EC23E23
:102BF00002D0E66A304301432068C6680E43C660CF
:102C00000126A06B3607B04213D0012811D002284C
:102C10000FD003280DD004280BD0052809D0062892
:102C200007D0072805D010E027E001200004014369
:102C3000DAE720684669F608F600466120684669CA
:102C4000278F7F077F0F3E4346612068C0680F4E85
:102C50003040884207D10020A064606C800880006A
:102C6000401C60640DE0606C022188431043606486
:102C7000A06C1843A064012503E0606C10436064FD
:102C800001252846F8BD00001902FEFFE7FF3F833B
:102C900070B586B005461A49286888422DD1194872
:102CA000826941150A4382618069084000900220D0
:102CB000019003200290002603960490092001A9A8
:102CC000C00600F0BDF9114C0F4820606660A66098
:102CD0008020E06040002061800060612020A061D1
:102CE000C001E061204600F039F9002803D08A21B4
:102CF00007A002F0ADF8EC63656206B070BD00009D
:102D00000024014000100240080002400C01002095
:102D10002E2E2F5372632F6164632E630000000018
:102D2000F7B5044600252068806840073ED4264653
:102D30004036307801280BD001273770E069012830
:102D400003D02046FDF79AFC0546002D02D02EE068
:102D50000220FEBD606C17490840FF210131084385
:102D600060640020A0643070E16B13488862E16BFE
:102D70001248C862E16B1248086321681C20086091
:102D8000206841681022114341602068C1683943BE
:102D9000C1602168E06B4031029B019A00F00AF9A2
:102DA0002068816804221143816000E002252846E2
:102DB000FEBD0000FEF1FFFF77050008FD050008DD
:102DC000E3050008F8B50446264640363078012869
:102DD00008D0012737702046FDF7A4FB05462800E0
:102DE00002D028E00220F8BD2068C16849084900E7
:102DF000C160E06B00F023F80546280003D0606C4A
:102E0000402108436064206841681022914341607A
:102E1000002D05D02046FDF7F6FB002D05D00AE079
:102E20002046FDF7F0FB0546F7E7606CFF21013116
:102E3000884338436064002030702846F8BD01683C
:102E40000A680E239A430A6001680A685208520011
:102E50000A600123026C19469140C26B5160203018
:102E60004370002101700020704770B500240146B6
:102E700020314A78022A03D004218163012416E01C
:102E8000026813680E25AB431360026813685B0881
:102E90005B0013600125036C2A469A40C36B5A609D
:102EA0004D7000220A70416B002900D088472046EF
:102EB00070BDF0B4C16B0B6801680C680422056C2E
:102EC0001646AE401E4210D066070ED50B689B0614
:102ED00002D40B6893430B60016C8A40C16B4A605B
:102EE000C16A002938D0F0BC084702273E46AE40F0
:102EF00002461E402032002E15D0A60713D50B68BF
:102F00009B0605D40B680A24A3430B600121517072
:102F1000016C8F40C16B4F6000211170816A0029E4
:102F20001AD0F0BC08470826AE401E4214D0230732
:102F300012D50B680E24A3430B600121046C0B46D1
:102F4000A340C46B63608163517000211170016BF9
:102F5000002901D0F0BC0847F0BC704770B50446AA
:102F6000002C23D002202546203568702068016897
:102F70000F4A1140A368626826691A43E368334325
:102F80001A4363691A43A3691A43E3691A430A435C
:102F900002602046FFF7FEF90020A062E062206395
:102FA0006063A06301216970287070BD012070BD4D
:102FB0000FC0FFFFF8B504468C46002520462030A0
:102FC0000178012909D00126067047780021012FD8
:102FD00005D0017002252846F8BD0220F8BD022761
:102FE0004770A16320680168490849000160614693
:102FF0002046FFF7E1F9E06A002805D02068016863
:103000000E221143016009E0206801680A22114381
:103010000160206801680422914301602068016812
:1030200031430160D7E7704710B504494A6902424D
:1030300002D04861FFF7F7FF10BD00000004014017
:10304000F8B500228EE001249440A4462340002BD2
:103050007ED04C68022C01D0122C0CD1D408A400D4
:1030600027183D6A5407E40E0F26A640B5430E69A3
:10307000A6402E433E62076855000324AC40A74398
:103080000E79B607B60FAE403E4306604E68012E7D
:1030900005D0022E03D0112E01D0122E0ED187683A
:1030A000A743CE68AE403E43866047686646B74356
:1030B0000E79F606F60F96403E434660C668A64374
:1030C0008C68AC403443C4604C68E40049D5284C5B
:1030D000A56901263543A561A4693440009495088B
:1030E000244CAD002F19BD689407240F0F26A6406D
:1030F000B5430926F606B04201D100260FE01E4E68
:10310000B04201D101260AE01C4EB04201D1022694
:1031100005E01B4EB04201D1032600E00526A64083
:103120002E43BE60174D2C689C434E68F60300D5B5
:103130001C432C606C689C434E68B60300D51C434E
:103140006C60AC689C434E68F60200D51C4300E0FE
:1031500007E0AC60EC689C434E68B60200D51C43A7
:10316000EC60521C0B681C46D44000D06BE7F8BDE5
:103170000010024000000140000400480008004820
:10318000000C0048000401400069084201D0012001
:10319000704700207047002A01D08161704781622A
:1031A00070470000014800687047000004000020DC
:1031B00002480168491C01607047000004000020BB
:1031C00010B506480168102211430160002000F08C
:1031D00007F800F017F8002010BD000000200240A2
:1031E00010B5044600F052F97D21C900FCF778FFC4
:1031F00000F0A2FB00222146501E00F029F800201A
:1032000010BD000008B50C4881690122114381619D
:1032100080691040009000221146501F00F018F8FD
:1032200000221146901E00F013F800221146501E95
:1032300000F00EF808BD000000100240C106C90EE3
:1032400001208840014908607047000000E100E06B
:1032500010B501F057F910BDF8B504462068374D98
:10326000C00356D50026E869C00007D4E8692904E0
:103270000843E861E8690840009001263048016889
:10328000C90513D4014608688A1510430860FFF782
:1032900089FF074606E0FFF785FFC01B642801D9B8
:1032A0000320F8BD26480068C005F4D5286A03212C
:1032B0000902084000281FD062680A4082421BD0E1
:1032C000286A88432A6A012109040A432A622A6A71
:1032D0008A432A622862C0070ED0FFF763FF0746C1
:1032E00007E0FFF75FFFC11B1648814201D90320A9
:1032F000F8BD286A8007F4D5286A032109028843AB
:10330000616808432862012E03D1E86931078843C8
:10331000E8612078C00705D0286BA168800880008C
:10332000084328632078800605D5286B1021884340
:10333000E168084328630020F8BD00000010024047
:103340000070004088130000F8B504460E464A4855
:103350000068C007C00FB0420CD247480168490856
:103360004900314301600068C007C00FB04201D07E
:103370000120F8BD2078414F800705D57868F021FD
:103380008843A168084378602078C00749D0606806
:10339000012806D0022809D0396889070BD40120FA
:1033A000F8BD3968890306D40120F8BD3968890160
:1033B00001D40120F8BD796889088900014379604A
:1033C000FFF7F0FE0546606801280AD0022816D0F3
:1033D00023E0FFF7E7FE411B2948814201D9032082
:1033E000F8BD78680007800F0128F2D119E0FFF7D7
:1033F000D9FE411B2248814201D90320F8BD7868DB
:103400000007800F0228F2D10BE0FFF7CBFE411B33
:103410001B48814201D90320F8BD78680007800F5E
:10342000F3D115480168C907C90FB1420BD901682A
:1034300049084900314301600068C007C00FB0422D
:1034400001D00120F8BD2078400706D57868072113
:1034500009028843E1680843786000F02DF8796834
:10346000084A0906090F515CC84007490860002056
:10347000FFF7B6FE0020F8BD002002400010024019
:1034800088130000D84F0008080000200148006899
:10349000704700000800002000B5FFF7F7FF04495F
:1034A0004968044A4905490F515CC84000BD000005
:1034B00000100240E84F000810B588B016A043681D
:1034C00002688168C068059304920691079016A06F
:1034D00001460EC9C0686C460EC40390164B5A686C
:1034E0000C2011460140154804290FD008290DD1A0
:1034F0009102090F04AC645CD96A6B460907090F95
:10350000595CD20304D5FCF7EBFD604308B010BD55
:103510000B486043FAE700000203040506070809A8
:103520000A0B0C0D0E0F101001020304050607080C
:10353000090A0B0C0D0E0F100010024000127A0049
:1035400000093D00FEB504462078F04DC00756D076
:1035500068680007800F012807D068680007800F9F
:1035600002280AD16868C00307D52868800346D5B9
:103570006068002843D10120FEBD01216068090474
:10358000012811D08A00002812D0052817D02868F9
:10359000884328602868904328606068002820D00D
:1035A000FFF700FE064618E0286808432860F4E7A5
:1035B000286888432860286890432860EDE72868D9
:1035C00010432860286808432860E6E7FFF7EAFD13
:1035D000801B642801D90320FEBD28688003F5D52F
:1035E0000DE0FFF7DFFD064606E0FFF7DBFD801B81
:1035F000642801D90320FEBD28688003F5D4207813
:1036000001268007002849DA68680007800F07D084
:1036100068680007800F022812D16868C0030FD4C1
:103620002868800704D5E068012801D00120FEBD8C
:103630002868F82188432169C900084328602DE0E3
:10364000E068002818D0286830432860FFF7AAFDFA
:10365000074606E0FFF7A6FDC01B022801D903209C
:10366000FEBD28688007F5D52868F82188432169C0
:10367000C9000843286011E028684008400028601D
:10368000FFF790FD074606E0FFF78CFDC01B022800
:1036900001D90320FEBD28688007F5D420780007F3
:1036A00026D5E069002811D0686A30436862FFF7C8
:1036B00079FD074606E0FFF775FDC01B022801D91A
:1036C0000320FEBD686A8007F5D511E0686A4008EE
:1036D00040006862FFF766FD074606E0FFF762FDFF
:1036E000C01B022801D90320FEBD686A8007F5D4FB
:1036F000207804274007002871DA00200190E8694B
:10370000C00008D4E969B8060143E961E9690140EC
:103710000091012001907E480168C90513D4016819
:10372000821511430160FFF73DFD029007E0FFF7AE
:1037300039FD0299401A642801D90320FEBD74485E
:103740000068C005F3D5A068012811D0002813D067
:10375000052819D0286A400840002862286AB84322
:103760002862A068002823D0FFF71CFD02901BE010
:10377000286A30432862F4E7286A4008400028623B
:10378000286AB8432862ECE7286A38432862286A26
:1037900030432862E5E7FFF705FD0299411A5D48CD
:1037A000814201D90320FEBD286A8007F3D50FE0CE
:1037B000FFF7F8FC029008E0FFF7F4FC0299411AC9
:1037C0005448814201D90320FEBD286A8007F3D402
:1037D0000198012803D1E96900078143E961207854
:1037E000C00640D5606901280CD0401D26D0686B0A
:1037F00038436863686B400840006863FFF7D2FC99
:1038000006462DE0686B38436863686B3043686335
:10381000FFF7C8FC064606E0FFF7C4FC801B022841
:1038200001D90320FEBD686B8007F5D5686BF821D0
:103830008843A169C9000843686314E0686BB84312
:103840006863686BF8218843A169C900084368630D
:1038500009E0FFF7A7FC801B022801D90320FEBD69
:10386000686B8007F5D4206A00284BD06968090787
:10387000890F022948D001273F06022806D0286870
:10388000B8432860FFF78EFC044638E02868B84348
:103890002860FFF787FC064606E0FFF783FC801BE5
:1038A000022801D90320FEBD28688001F5D4E86A0A
:1038B000E16A000900010843E862616AA06A0843FE
:1038C00069683D22120491430843686028683843C0
:1038D0002860FFF767FC044606E0FFF763FC001B67
:1038E000022801D90320FEBD28688001F5D509E032
:1038F000FFF758FC001B022801D90320FEBD2868F1
:103900008001F5D40020FEBD0120FEBD0010024064
:10391000007000408813000004220549042803D0E9
:10392000086990430861704708691043086170474F
:1039300000E000E07047000010B50949401E8842D1
:1039400001D9012010BD074C60610321081F00F060
:10395000D9FD0020A06107202061002010BD0000DB
:10396000FFFFFF0000E000E010B5FFF7E3FF10BD30
:1039700070470000F8B504462368D8691968050740
:103980002D0F002D07D1820605D58A0603D52046C6
:1039900001F061F8F8BD9A68002D68D0D507ED0FE9
:1039A000FF2621360E402E4361D0C60706D0CE0535
:1039B00004D501261E62E36E3343E36686070223C5
:1039C0000427002E06DAD60704D026683362E66E96
:1039D0003E43E666460706D5D20704D02268176242
:1039E000E26E1A43E266020709D520220A402A4302
:1039F00005D0236808221A62E36E1343E366E26E81
:103A0000002AC7D0800604D5880602D5204601F0DA
:103A100022F8E06E000703D420688068400620D5B5
:103A2000204600F0F3FF20688168490615D58168BB
:103A3000402291438160606E00280AD0144941639E
:103A4000606EFFF712FA0028A4D0606E416B8847C1
:103A5000F8BD2046FFF78CFFF8BD2046FFF788FF32
:103A6000F8BD2046FFF784FF0020E066F8BD02069F
:103A700005D50A0603D5204601F0DAF8F8BD400660
:103A8000FCD54806FAD5204600F0CFFFF8BD00006F
:103A90002949000870B50446002C05D0254660353C
:103AA000687A002802D006E0012070BD002028724C
:103AB000204600F029F8242068722068016849082F
:103AC00049000160204601F005F8012819D0606A1C
:103AD000002802D0204600F0B9FE2068416801228B
:103AE000D20291434160206881680822914381603D
:103AF00020680168012211430160204600F00BFF9D
:103B000070BD012070BD0000F0B587B004462A49A1
:103B1000206888424ED129488269012189030A43DD
:103B200082618069084001900C200290022003907D
:103B300001200490032105910690092002A9C006E6
:103B4000FFF77EFA1F4D1E48286000266E60AE60AB
:103B50008027EF602E616E612020A861EE6128460B
:103B6000FFF7FCF9002803D07B2117A001F070F9C2
:103B700065666C621248134D143844352860102075
:103B80006860AE60EF602E616E61AE61EE612846E6
:103B9000FFF7E4F9002803D08A210BA001F058F9BF
:103BA00025666C62002211461B20FFF751FB1B208B
:103BB000FFF744FB07B0F0BD0038014000100240A1
:103BC00030000240280200202E2E2F5372632F75E2
:103BD000736172742E630000F8B5044613462546DF
:103BE0006035A87A202801D00220F8BD00290AD02B
:103BF000002B08D00122A0681203904209D120694D
:103C0000002802D005E00120F8BDC80701D001203E
:103C1000F8BD287A01282AD001272F726165582023
:103C200003530026E6662220A872616E114888625E
:103C3000616E1148C862616E10480863606E466329
:103C40002168626D2431606EFFF7B4F92E7220682E
:103C500001683A021143016020688168394381603C
:103C6000206881684022114381600020F8BD022055
:103C7000F8BD000089490008C94900083D4900080D
:103C800010B50549884205D107236422034902483B
:103C900000F007F810BD0000B8010020540100201A
:103CA0007047FFB583B005460C462F466037787ADB
:103CB000202802D0022007B0F0BD002C0BD00598C0
:103CC000002808D00120A9680003814209D1286991
:103CD000002802D005E00120EDE7E00701D0012037
:103CE000E9E7387A01280FD0012038720020E86611
:103CF00021207872FFF756FA02902E46403605983A
:103D00003082059870821CE00220D4E7708A401E41
:103D1000708206980090002280212846029B00F0C5
:103D2000BBFF002801D00320C5E70120A9680003DC
:103D3000814202D12869002812D020782968641CA9
:103D40000885708A0028E1D1069800900022402161
:103D50002846029B00F0A0FF002808D00320AAE715
:103D60002088A41CC0052968C00D0885E9E720202B
:103D70007872002038729EE7F8B504462546603513
:103D8000687A202801D00220F8BD00290AD0002A34
:103D900008D00123A0681B03984209D1206900289C
:103DA00002D005E00120F8BDC80701D00120F8BD10
:103DB000287A012828D001202872E164204640306A
:103DC000028242820026E66621206872216E0F4838
:103DD0008862216E0E48C862216E0E480863206E0C
:103DE00046632768134628373A46E16C206EFFF792
:103DF000E1F82168402008622E72206881688022E4
:103E0000114381600020F8BD0220F8BDD3490008AD
:103E1000034A00083D490008006E0068016849082F
:103E20004900016070477047FEE7000010B50920A7
:103E3000C0060168032292029143016001680123D8
:103E40009B0219430160016892009143016002687E
:103E500099000A43026002680324A403A24302609B
:103E600002688C0022430260026803242404A243F7
:103E7000026002680C012243026002680324A40469
:103E8000A243026002688C0122430260026803249C
:103E90002405A243026002680C0222430260026809
:103EA0000324A405A243026002688C02224302603C
:103EB000026803242406A243026002680C03224322
:103EC00002602022826140228261802282610A1186
:103ED0008261CA10826183614A10826181610249F4
:103EE0000120886110BD000000040048F0B50146C3
:103EF00000232027FE000922D206254D01240806B2
:103F000001D5976100E09762080602D540209061D4
:103F100001E040209062080602D58020906101E017
:103F200080209062080601D5966100E0966208063E
:103F300001D5966102E0012040029062080603D597
:103F400001208002906102E0012080029062080658
:103F500003D50120C002906102E00120C0029062FE
:103F6000080603D501200003906102E00120000350
:103F700090620020FEF735FAAC610020FEF731FABE
:103F80004806010EAC625B1CDBB2082BB7D3F0BD58
:103F900000040048FFB5002100914D4E4B4F3618EC
:103FA000203E03963E18203E02964E4E494D36184E
:103FB000203E494C494B4A4A01964B4E0921121862
:103FC0001B1824182D18C906203A203B203C203D00
:103FD0003618203EF07F000602D52020886101E0DF
:103FE000202088620198C07F000602D540208861A9
:103FF00001E0402088620298C07F000602D5802040
:10400000886101E0802088620398C07F000603D5A4
:10401000FF200130886102E0FF2001308862E87FE4
:10402000000603D501204002886102E00120400221
:104030008862E07F000603D501208002886102E0EB
:10404000012080028862D87F000603D50120C002CB
:10405000886102E00120C0028862D07F000603D59B
:1040600001200003886102E0012000038862002033
:10407000FEF7B7F91D4F0120B861F07F4000F077DF
:104080000198019FC07F4000F8770298029FC07F8F
:104090004000F8770398039FC07F4000F877E87FDF
:1040A0004000E877E07F4000E077D87F4000D87795
:1040B000D07F4000D0770D4F0120B8620098401C9F
:1040C000C0B200900098082884D3FFBD37050020B7
:1040D0005B0500207F050020A3050020C705002008
:1040E000EB050020C8040020A404002000040048C0
:1040F00000B520210920C006816240218162802113
:1041000081624900816249008162490081624900FF
:104110008162490081620020FEF763F901490120B4
:10412000886200BD00040048F0B520230921C906BB
:104130008B6240248C6280258D62D80088624000AA
:10414000886246008E6282008A62C0008862002017
:10415000FEF747F9084F0120B8610020FEF741F94A
:104160008B618C618D61A0008861400088618E61E7
:104170008A61C0008861F0BD0004004800B50449B0
:1041800001228A610020FEF72CF98A62002000BD1E
:10419000000400487047000070B51D4A10780028E0
:1041A0001AD09078422801D0C22815D1194D18484C
:1041B0002E78002401231849C079022E0DD0002842
:1041C00021D00C70D4712C70D0790B214843104948
:1041D0000C31401800F09CFD70BD002808D001286B
:1041E00009D002280BD00328EED10C70D471EBE774
:1041F0000B70D371E8E702200870D071E4E7032068
:104200000870D071E0E70B70D3712B70DCE7000011
:10421000240000200C0000200D00002070B5324C5E
:1042200000262670A37A834206D06179814201D0AC
:10423000607170BDA07270BD2B49E07A4A78C97870
:104240000125834230D10028F5D02379002BF2D00C
:104250005B1E1B061B0E2371EDD1A070002A00D13E
:104260002570002912D01422012916D0022901D06C
:104270000329E0D10321E17080210843A07022715D
:10428000A079FA28D7D2401CA07170BDE57020211A
:104290000843A0703220207170BD0221E1706021BE
:1042A0000843A070227170BD002817D0A070002AAA
:1042B00000D12570012908D00B48C022C07A1043D4
:1042C000022906D0032907D105E040210843A07048
:1042D00002E0A07000E0A070E67001E06670A671D8
:1042E00005202071E37270BD2400002010B5FEF798
:1042F000F7FAFFF793FF10BD1FB528484169012465
:10430000214341614069204000900022114609206C
:10431000FEF79EFF0920FEF791FF22482049016029
:10432000002141608160C1600161042242618161BC
:10433000C16104624162FF22C2328262C1620463CF
:104340004463FEF7E9FB002803D0552116A000F0D6
:104350007FFD0194012000030290039401A91148FC
:10436000FEF748FB002803D05E210FA000F070FD8F
:104370000C48FEF7E7FA002803D063210AA000F0FA
:1043800067FD20220C490748FEF7CAFC002803D02D
:10439000672105A000F05CFD1FBD00000010024079
:1043A00000240140C00000202E2E2F5372632F6185
:1043B00064632E6300000000DC03002070470000EF
:1043C000F0B587B021484269012149040A4342619E
:1043D00042690A400192426949000A4342614069C8
:1043E000084001901A4D0926F6060022294630465B
:1043F000FEF7D1FE174F002203213846FEF7CBFE11
:104400001120029000240394049402A93046FEF780
:1044100017FE0295012503950494059402A93046E0
:10442000FEF70EFE0320029003950494059402A962
:104430003846FEF705FE182002900394049502A961
:104440003846FEF7FDFD07B0F0BD00000010024049
:10445000E09F00000004004838B52248416901256A
:1044600029434161406928400090002211460A20FA
:10447000FEF7EEFE0A20FEF7E1FE1C4C1A48206013
:104480004B20C00160600020A060E06020610C2132
:104490006161A061E061206260622046FFF7FAFA84
:1044A000002803D04F2112A000F0D2FC2068016840
:1044B00020229143016020680168102211430160AD
:1044C000206881682943816008496422643988181A
:1044D000FFF782FB002803D0572105A000F0B8FCAD
:1044E00038BD00000010024000380140B801002033
:1044F0002E2E2F5372632F75736172742E6300001A
:10450000704700008307FF22DB0E9A408907090EDF
:10451000994000280BDA0007000F08388308084884
:104520009B001818C36993430B43C361704783080A
:1045300004489B001818036893430B4303607047BB
:1045400000ED00E000E400E07047000010B5092431
:104550000122E406D1032046FEF71DFE2848012172
:10456000417207228270226803239B029A432260D1
:1045700022688B021A432260226803231B039A439A
:10458000226022680B031A432260226803239B03E4
:104590009A43226022688B031A4322602268032315
:1045A0001B049A43226022680B041A43226022688B
:1045B00003239B049A43226022688B041A432260DF
:1045C000226803231B059A43226022680B051A43C5
:1045D0002260226803239B059A43226022688B0590
:1045E0001A432260226803231B069A432260226832
:1045F0000B061A43226000224270017010BD0000B9
:104600000C00002010B500F001F810BD10B50248F4
:1046100000F02EF810BD0000EC04002010B50020C2
:10462000114A00211154401CC0B22428FAD30020A2
:104630000D4A24321154401CC0B22428FAD3002061
:10464000094A48321154401CC0B24B28FAD32620E4
:10465000064909781154401CC0B24A28FAD30120F7
:104660001070FFF7E3FB10BDA40400200E00002033
:1046700070B50546FFF73CFD7820FFF737FCFFF7E4
:104680007DFD0020FFF732FCFFF778FD0024601E5F
:10469000242803D22046FFF77DFC02E0285DFFF7C7
:1046A00025FCFFF76BFD641CE4B24B2CEFD3FFF746
:1046B0003BFD70BD7047000010B50448007803282A
:1046C00003D1FDF701FFFDF7ADFF10BD0D00002088
:1046D00003490878002802D14870024908707047E1
:1046E0000C0000202B00002010B5FEF761FDFFF745
:1046F0003BF9FDF73DFC114801210170104A10788B
:10470000401CC0B21070322801D300201070107805
:10471000002801D10B4A1170012801D10A4A1170F9
:10472000022801D1094A1170032801D1084A1170E9
:10473000401F2D2801D80748017010BD0F00002030
:104740001A0000201000002011000020120000209C
:10475000130000201400002070B594B002250895C5
:1047600001260B9610200C90109500241194052022
:10477000C0041290139408A8FEF7E4FE002803D0AA
:10478000B02117A000F064FB072004900595069463
:104790000794012104A8FEF7D7FD002803D0BC210F
:1047A0000FA000F055FB009602946846FEF754FDFA
:1047B000002803D0C2210AA000F04AFBFEF766FEE3
:1047C0007D21C900FBF78CFCFFF7B6F80420FFF74A
:1047D000A3F800221146501EFEF73AFD14B070BD3A
:1047E0002E2E2F5372632F6D61696E2E63000000B1
:1047F000134801680122114301604168114A1140C8
:1048000041600168104A1140016001680122920470
:104810009143016041683F22120491434160C16AA3
:1048200009090901C162016BFF221432914301633E
:10483000416B4908490041630021816070470000D5
:10484000001002400CB8FF08FFFFF6FE10B5818C87
:10485000C90707D001684A6801235B049A43836A49
:104860001A434A60818C890707D501684A68012389
:104870001B049A43C36A1A434A60818C490707D5CF
:1048800001684A6801239B049A43036B1A434A60F8
:10489000818C090707D501684A680123DB039A4325
:1048A000436B1A434A60818CC90607D501688A6840
:1048B00001231B039A43836B1A438A60818C890608
:1048C00007D501688A6801235B039A43C36B1A43C7
:1048D0008A60818C490612D501684B680122120555
:1048E000046C934323434B60016C914207D10168F0
:1048F0004A6803235B059A43436C1A434A60818CE0
:10490000090607D501684A680123DB04806C9A43D5
:1049100002434A6010BD0022C2662021603041720D
:10492000817202720020704710B5406A0022014671
:1049300040314A834A82FFF71BF810BD70B5446AC4
:10494000204660300546407A0026212808D120689C
:104950008068000604D552200653204600F072F805
:10496000A87A222808D120688068400604D55A20F9
:104970000653204600F04AF8E06E10210843E06636
:104980002046FEF7F5FF70BD10B50146486A09687C
:104990000968890615D400225A210A5201680A685A
:1049A000FF2301339A430A6001688A685208520063
:1049B0008A6001688A6840239A438A6020226A21BB
:1049C0000A54FFF75DF910BD10B5406AFFF768F9AA
:1049D00010BD10B50146486A0968096889060DD4FA
:1049E000002252210A5201688A6880239A438A6011
:1049F0000068016840221143016010BDFFF70CFA06
:104A000010BD10B5406AFFF70EFA10BD01680A68C4
:104A1000FF2321339A430A60016860308A68520894
:104A200052008A6020218172704710B501680A68BF
:104A300040239A430A60202269210A54FFF7ECF9C7
:104A4000002010BD016860300A68C0239A430A60E4
:104A500020214172704770B502464032938B014667
:104A600060318D7A0C460168222D05D088690822B4
:104A700010438861022070BD898C01268568360349
:104A8000B54202D10569002D0CD01940436D5D1C63
:104A900045651970518B491E0904090C518308D0D2
:104AA000002070BD456D19402980416D891C41650C
:104AB000F0E701680A68FF2321339A430A6001681E
:104AC0008A68520852008A602021A172FFF7D8F844
:104AD000002070BDF8B50446102000210025A36811
:104AE0002269E669134362693243134322681668F8
:104AF0004B4F3E401E431660226853680326360320
:104B0000B343E66833435360A369226A13432268C0
:104B100096680B273F02BE431E439660414A126BC4
:104B20009207920F06D0012A08D0022A08D0032A41
:104B300007D101E0002004E0022002E0042000E0B0
:104B400008200122E369D203934235D100280ED018
:104B5000022816D004281CD0082824D001250A09D0
:104B600012010807400F10432168C8602DE0FEF7CE
:104B700093FC616840004A088018FBF7B1FA81B2E3
:104B8000EDE76168284A48088018FBF7A9FA81B266
:104B9000E5E7FEF791FC616840004A088018FBF7E2
:104BA0009FFA81B2DBE7616801224808120480188D
:104BB000FBF796FA81B2D2E7002808D0022811D07C
:104BC000042819D0082822D001252846F8BDFEF770
:104BD00063FC61684A088018FBF782FA216880B29A
:104BE000C860F2E76168114A48088018FBF778FA54
:104BF000216880B2C860E8E7FEF75EFC61684A0899
:104C00008018FBF76DFA216880B2C860DDE7616843
:104C100048088018FBF764FA216880B2C860D4E7BE
:104C2000F369FFFF001002400024F40000127A0034
:104C30006921095C212901D00220704701464031D9
:104C40004A8A002A12D0012382681B039A4202D1A9
:104C50000269002A16D0C26C531CC3640068127823
:104C60000285488A401E48820020704701680A6811
:104C700080239A430A600068016840221143016062
:104C800000207047C26C03681288D205D20D1A85C5
:104C9000C26C921CC264E4E7FFB581B005460E46C3
:104CA00017460A9C1DE0601C1BD0002C05D0FEF7A7
:104CB00079FA0499401AA04213D928680168FF22A2
:104CC000A132914301602868603581684908490034
:104CD000816020206872A87200202872032005B02D
:104CE000F0BD2868C1693046884304D00020B8422E
:104CF000D9D00020F3E70120F9E7000010B5034800
:104D000000F01EF80148FEF735FE10BDB801002086
:104D100010B50024084A03E01155641CE4B2401C9D
:104D200001780029F8D1054800F081F822460249AF
:104D30000248FFF721F810BDB0020020B8010020A2
:104D4000F8B52B4F3868C169C943C9063AD4016820
:104D5000C90637D51021016226490320087038465C
:104D600000F054F8244C3D46207801266421683D2B
:104D700001280AD0002825D1786E00684068081AFA
:104D800081B2698000201D4A22E0786E0068406888
:104D9000081A81B269800020194A04E02B181B7997
:104DA0001354401CC0B28142F8D86421281DFBF77F
:104DB000D7F96422291D0E48FEF70EFF002020704F
:104DC00010480670F8BD2B181B791354401CC0B254
:104DD0008142F8D86421281DFBF7C2F96422291DFD
:104DE0000348FEF7F9FE267007480670F8BD00007C
:104DF000B8010020220000202300002078030020BA
:104E000014030020200000202100002010B50446DB
:104E100020688168402291438160606E002801D043
:104E2000FEF70DF820206034A072002010BD10B5F0
:104E3000044620688168802291438160206E0028AA
:104E400001D0FDF7FCFF202060346072002010BD0F
:104E5000FEE72021020C01D010211046020A01D0E9
:104E600010460839020901D01046091F820801D0F6
:104E70001046891E420801D0881E7047081A7047E4
:104E800002E008C8121F08C1002AFAD17047704713
:104E9000002001E001C1121F002AFBD17047000071
:104EA0000149086070470000BC000020FFF74EFB7E
:104EB000164D0024E878002804D0EC70FFF76AF95A
:104EC000FBF7E4FA2879002804D02C71FFF70EFADA
:104ED000FFF762F96879002802D06C71FDF73CF8A1
:104EE000A879002802D0AC71FDF7E8FBE87900282A
:104EF00004D0EC71FFF786FBFFF7EAFB287A002865
:104F0000D8D02C72FFF7D8FBD4E700000C000020AB
:104F1000412802D33738C0B201E03038C0B241294D
:104F200002D33739C9B201E03039C9B20A2250433D
:104F30004018C0B270470A090A2A02D337320270F9
:104F400001E030320270401C0907090F0A2902D320
:104F5000373101707047303101707047FEF730F91A
:104F6000FFF7FAFBFFF72CFAFFF728FAFFF774FABE
:104F7000FFF7C2F900210020401CC0B2FF28FBD37C
:104F8000491CC9B2FF29F6D3FFF790FFFEE70000E6
:104F9000F8B506460C46FBF706FA051E0F4600D08C
:104FA0000120014349000B484908411AC90F0DD09F
:104FB000002E01D0012100E000210C4361004908CE
:104FC000401AC00F02D10120FFF76AFF2846394678
:104FD000F8BD00000000F07F0000000000000000AD
:104FE000010203040607080900000000010203048F
:104FF000423030357B30302C30302C30302C30305B
:105000002C30307D0D0A0000000000000000000080
:1050100000000000000000ADAD0000000000000036
:105020000000000000ADAD00000000000000000026
:105030000000000000000000000000ADAD00000016
:1050400000000000000000000000AD0000000000B3
:10505000000000686800000000000000000000ADD3
:10506000ADADAD00000000000000000000ADADAD32
:10507000AD000000000000686800000000000000B3
:10508000000000ADAD6868000000000000000000F6
:1050900000ADAD6868000000000000ADAD0000008C
:1050A00000000000000000ADADADAD00000000004C
:1050B0000000000000ADADADAD000000000000AD8F
:1050C000AD00000000000000000000ADADADAD6817
:1050D000680000000000000000ADADADAD686800E4
:1050E000000000ADAD68680000000000000000ADE9
:1050F000AD686800000000000000000000ADAD6871
:1051000068000000000000ADAD686800000000000D
:10511000000000ADADADADADAD0000000000000081
:1051200000ADADADADADAD00000000ADAD68680047
:1051300000000000000000ADAD6868000000000045
:105140000000000000ADAD6868000000000000AD88
:10515000ADADAD0000000000000000ADADADADADE7
:10516000AD0000000000000000ADADADADADAD0084
:10517000000000ADAD80808080000000000000AD28
:10518000AD686800000000000000000000ADAD68E0
:1051900068000000000000ADAD808080800000004D
:1051A000000000ADAD8080000000000000000000A5
:1051B00000ADAD8080000000000000ADAD808080BB
:1051C00080000000000000ADAD6868000000000035
:1051D0000000000000ADAD6868000000000000ADF8
:1051E000AD80808080000000000000ADAD808000B8
:1051F000000000000000000000ADAD808000000055
:10520000000000ADAD68688080000000000000ADC7
:10521000AD808000000000000000000000ADAD8007
:1052200080000000000000ADAD68688080000000D4
:10523000000000ADAD686800000000000000000044
:1052400000ADAD68680000000000006868000080E4
:1052500080686800000000ADAD808080800000683C
:105260006800000000ADAD80808080000000006814
:105270006800008080000000000000ADAD6868009C
:10528000000000000000000000ADAD6868000000F4
:10529000000000282800002828686868686868AD51
:1052A000AD686868680000686800000000ADAD681F
:1052B00068686800000000282800000000000068FE
:1052C000680000ADAD80800000000000000000001C
:1052D00000ADAD8080000000000000000000000074
:1052E00000000000000000ADAD68686868000000C4
:1052F0000000000000ADAD686868680000000000B4
:105300000000000000000000000000ADADADAD00E9
:10531000000000000000000000ADADADAD000000D9
:10532000000000000000000000000000000000ADD0
:10533000AD686800000000000000000000ADAD682E
:1053400068000000000000000000000000000000F5
:10535000000000ADADADAD686800000000000000C9
:1053600000ADADADAD6868000000006868000000E9
:1053700000000000000000ADAD00000000000000D3
:105380000000000000ADAD0000000000000000685B
:105390006800000000000000000000ADADADAD8071
:1053A000800000000000000000ADADADAD808000C9
:1053B000000000686800000000000000000000AD70
:1053C000AD686800000000000000000000ADAD689E
:1053D0006800000000000068680000000000000095
:1053E000000000ADADADAD80800000000000000009
:1053F00000ADADADAD808000000000686868680059
:1054000000000000000000ADAD8080000000000042
:105410000000000000ADAD808000000000000080B2
:1054200080808000000000000000008080808000FC
:10543000000000000000000000808080800000006C
:10544000000000ADAD68686868000000000000ADB5
:10545000ADADADADADADAD000000000000ADADAD8A
:10546000ADADAD68680000ADAD808080800000000B
:10547000000000ADAD8080000000000000000000D2
:1054800000ADAD8080000000000000ADAD000080E8
:1054900080000000000000ADADADADADAD808080FE
:1054A0008068680000ADADADAD808080800000AD4B
:1054B000AD00008080000000000000ADADADAD008B
:1054C000000000000000000000ADADADAD00000028
:1054D000000000808000000000686868680000AD7F
:1054E000ADADAD0000686868688080000080808095
:1054F00080000068680000808000000000808080DC
:10550000800000ADADADAD80800000000000000067
:1055100000ADADADAD808000000000ADAD0000007D
:10552000000000ADADADADADADADAD000000008093
:10553000800000000080808080000080800000AD3E
:10554000AD000000000000ADADADADADADADAD0046
:1055500000000080800000000080808080000080CB
:10556000800000ADAD00000000000068680000ADE4
:10557000ADADAD00006868000000000000808080D4
:1055800080000068680000ADAD0000000000006809
:10559000680000ADADADAD000080800000000000EF
:1055A00000ADADADADADAD0000000068680000001D
:1055B00000000000000000ADAD4040000000000011
:1055C0000000000000ADAD40400000000000006899
:1055D0006800000000000000000000ADADADAD802F
:1055E000800000000000000000ADADADAD80800087
:1055F000000000404000000000000000000000AD7E
:10560000AD686800000000000000000000ADAD685B
:105610006800000000000080800000000000000022
:10562000000000ADAD686800000000000000000050
:1056300000ADAD8080000000000000808000000010
:1056400000000000000000ADADADAD0000000000A6
:105650000000000000ADADADAD000000000000ADE9
:10566000AD00000000000000000000ADAD00000033
:10567000000000000000000000ADAD0000000000D0
:1056800000ADADADAD00000000000000000000ADB9
:10569000AD000000000000000000000000ADAD0003
:1056A0000000000000ADADADAD0000000000000046
:1056B000000000ADAD000000000000000000000090
:1056C00000ADAD0000000000000000ADAD68680056
:1056D00000000000000000ADAD80806868000000A0
:1056E0000000000000ADAD8080686800000000ADE3
:1056F000AD68680000000000000000ADAD000000D3
:10570000000000000000000000ADAD00000000003F
:10571000000000ADAD80806868000000000000ADB2
:10572000AD808080800000000000000000ADAD80F2
:1057300080808000000000ADAD80806868000000BF
:10574000000000ADAD68680000000000000000002F
:1057500000ADAD6868000000000000ADAD68688075
:105760008000000000000080806868686800000019
:10577000000000000080806868686800000000ADDC
:10578000AD68686868000000000000ADADADAD68B0
:10579000680000000000000000ADADADAD686868B5
:1057A0006800008080000068680000000000008041
:1057B00080808000000000000000000000808080E9
:1057C00080000000000000ADAD000040400000007F
:1057D000000000ADADADAD80800000000000000015
:1057E00000ADADADAD808080800000404000000085
:1057F00000000000000000ADAD40400000000000CF
:105800000000000000ADAD4040000000000000407E
:105810004000000000000000000000ADADADADADE7
:10582000AD6868000000000000ADADADADADAD00ED
:10583000000000686800000000000000000000ADEB
:10584000AD686800000000000000000000ADAD6819
:105850006800000000000068680000000000000010
:10586000000000ADADADAD00008080808000000084
:1058700000ADADADAD000080800000808000000074
:1058800000000000000000ADAD80800000000000BE
:105890000000000000ADAD8080000000000000AD01
:1058A000AD00000000000000000000ADAD68680021
:1058B000006868686800000000ADAD6868000068B6
:1058C000680000ADAD40400000000000000000ADE9
:1058D000ADADAD68680000000000000000ADADADEA
:1058E000AD404000000000ADAD0068680000000061
:1058F0000000008080ADAD0000000000000000004E
:10590000008080ADAD000000000000ADAD40404023
:1059100040000000000000ADADADAD6868000000C3
:105920000000000000ADADADAD404000000000AD96
:10593000AD8080404000000000000080808080003A
:105940000000000000000000008080808000000057
:10595000000000808000004040000000000000AD1A
:10596000AD808000000000000000000000ADAD80B0
:105970008000000000000080800000404000000027
:105980000000008080808000000000000000000017
:1059900000808080800000000000002828000000B7
:1059A00000000000000000ADAD68680000000000CD
:1059B0000000000000ADAD68680000000000002895
:1059C0002800000000000000000000ADADADAD6893
:1059D000680000000000000000ADADADAD686800DB
:1059E000000000000000000000000000000000AD0A
:1059F000AD686800000000000000000000ADAD6868
:105A0000680000000000000000000000000000002E
:105A1000000000ADADADAD68686868686800000062
:105A200000ADADADAD6868686800004040000000A2
:105A300000000000000000ADAD808000000000000C
:105A40000000000000ADAD80800000000000006894
:105A50006800000000000000000000ADADADAD40EA
:105A6000406868000000000000ADADADAD4040688A
:105A7000680000ADAD00000000000000000000ADB7
:105A8000ADADAD00000000000000000000ADADAD08
:105A9000AD000000000000ADAD00000000000000FF
:105AA000000000ADADADAD000040400000000000C2
:105AB00000ADADADAD000040400000ADAD00000058
:105AC00000000000000000ADAD808080800000007C
:105AD0000000000000ADAD8080808000000000ADBF
